:020000040800F2
:1000000098260020A5010008AD010008AF010008F6
:10001000B1010008B3010008B501000800000000AC
:10002000000000000000000000000000B701000810
:10003000B901000800000000BB01000875050008B8
:10004000BF010008BF010008BF0100080000000058
:1000500000000000BF010008BF010008BF01000848
:10006000BF01000800000000BF010008BF01000838
:10007000BF01000800000000D9050008FD050008C8
:10008000BF010008BF01000800000000BF01000818
:10009000BF01000800000000000000000000000098
:1000A000000000000000000000000000BF01000888
:1000B000BF010008BF010008BF010008BF01000820
:1000C00000F002F800F05EF80AA090E8000C82440C
:1000D0008344AAF10107DA4501D100F053F8AFF2E9
:1000E000090EBAE80F0013F0010F18BFFB1A43F016
:1000F00001031847241000004410000010F8013BD1
:100100000A4413F0030408BF10F8014B1D1108BF87
:1001100010F8015B641E05D010F8016B641E01F835
:10012000016BF9D1002D15D010F8014B03F00C0331
:100130000C2BA1EB04040ABF10F8013BA4EB8314C1
:10014000A4EB032405F1010314F8016B5B1E01F815
:10015000016BF9D5914238BF10F8013BD1D37047FC
:100160000023002400250026103A28BF78C1FBD8C0
:10017000520728BF30C148BF0B6070471FB51FBD75
:1001800010B510BD00F031F81146FFF7F7FF00F091
:100190000DFB00F04FF803B4FFF7F2FF03BC00F0D3
:1001A00057F800000948804709480047FEE7FEE786
:1001B000FEE7FEE7FEE7FEE7FEE7FEE7FEE7FEE717
:1001C00004480549054A064B704700009905000898
:1001D000C1000008982000209826002098220020C6
:1001E00098220020704770477047754600F02CF841
:1001F000AE4605006946534620F00700854618B014
:1002000020B5FFF7DDFFBDE820404FF000064FF0BE
:1002100000074FF000084FF0000B21F00701AC463B
:10022000ACE8C009ACE8C009ACE8C009ACE8C0095A
:100230008D46704710B50446AFF300802046BDE8F8
:100240001040FFF7A8BF000000487047382000208A
:1002500001491820ABBEFEE726000200704700F0FF
:100260001F02012191404209920002F1E022C2F8EE
:10027000001170472DE9FE4F4768D0F808C0D0F84C
:100280000C80D0F81090D0F814A0CDF808A0D0F8C9
:1002900018A0CDF804A0D0F81CA0CDF800A0002232
:1002A000012303254FF001160C885FE004F0010ADA
:1002B000BAF1000F55D027EA030A91F802B00BFA01
:1002C00002FB4AEA0B0791F808A04FEA420B0AFA30
:1002D0000BFA2CEA050B4AEA0B0C28EA030A91F800
:1002E0000AB00BFA02FB4AEA0B0829EA060A91F85F
:1002F00003B002F1100E0BFA0EFB4AEA0B0A91F85A
:1003000004B00BFA02FB4AEA0B09DDF808A02AEA5E
:10031000060A91F805B00BFA0EFB4AEA0B0A91F8AF
:1003200006B00BFA02FB4AEA0B0ACDF808A091F8D6
:1003300009A04FEA420B0AFA0BFADDF804B02BEAE7
:10034000050B4AEA0B0ACDF804A0DDF800A02AEA62
:10035000030A91F807B00BFA02FB4AEA0B0ACDF840
:1003600000A05B00AD007600521C6408002C9DD1FB
:10037000DFF8C4A0504502D14FF01F0A01E04FF052
:10038000000A27EA0A0AC0F804A0DFF8ACA050452A
:1003900002D14FF01F0A01E04FF0000A2CEA0A0ACE
:1003A000C0F808A0DFF890A0504502D14FF01F0A16
:1003B00001E04FF0000A28EA0A0AC0F80CA0DFF8B2
:1003C00078A0504502D14FF01F0A01E04FF0000A1B
:1003D00029EA0A0AC0F810A0DFF85CA0504502D153
:1003E0004FF01F0B01E04FF0000BDDF808A02AEAE8
:1003F0000B0AC0F814A0DFF840A0504502D14FF01E
:100400001F0B01E04FF0000BDDF804A02AEA0B0AF5
:10041000C0F818A0DFF820A0504502D14FF01F0B04
:1004200001E04FF0000BDDF800A02AEA0B0AC0F84B
:100430001CA0BDE8FE8F000000000B4029B1064A59
:10044000D2690243044BDA6104E0034AD269824371
:10045000014BDA6170470000000002400EB5002039
:10046000029001903848806840F001003649886069
:1004700000BF3548006800F0040001900298B0F514
:10048000C06F02D201980028F3D0002002902E48BD
:10049000006800F0040010B10120019001E000208C
:1004A0000190019801284ED12749C96841F0020105
:1004B000254AD1601146496841F4106151601146E6
:1004C000496801F00401042907D11146486840F049
:1004D0000800486020F0080048601B49496841F066
:1004E0000401194A516000BF1749096801F002016F
:1004F00000910299491C02910299B1F5C06F02D294
:1005000000990029F0D01049C96941F008010E4A4C
:10051000D1610E49096841F018010C4A11600A497D
:10052000C96841F00401084AD1601146C968D16028
:100530001146C96821F44071D1601146C96841F47F
:100540008071D16000BF0EBD0000024000800140FC
:100550004FF0E021486107214FF0E0221161704720
:100560004FF0E020006920F001004FF0E021086129
:10057000704700000648006820B105480068401E2A
:100580000349086003480068401C0249086070473E
:10059000040000200800002010B50D480D49C86176
:1005A0000846C0680020C8600846406800204860CF
:1005B00008468068002088600846006900200861BD
:1005C0000846406900204861FFF748FF10BD000061
:1005D00010000008000002400648406D00F00200D4
:1005E00038B105480088401C0349088000200149B3
:1005F00048657047000007400000002070B556486D
:10060000406D00F0080060B15448006800F0200020
:1006100038B953480068FFF79BFF00204FF0E021F6
:1006200088614D48406D00F00400F0B14B4800680F
:1006300000F02000C8B1FFF793FF4A48007820B9C6
:1006400049480068401C484908604748006800F075
:10065000E0FB044645480CC8204600F029FC444A0B
:100660001060516000204049086000203D4908703A
:100670000022404B3E490868496800F017FD55D8F4
:1006800000223D4B3A490868496800F0D5FB4DD837
:1006900000F08AF904E039480068401C37490860D6
:1006A0002E48006800F020000028F4D12B48806814
:1006B00020F440602949886000F08CF830490880B7
:1006C00008460088332809D1002405E02146641C2F
:1006D0002C4A505C00F00CF9082CF7DB2848008805
:1006E000CC2823D100F076F82549088008460088F8
:1006F000F0281BD100F06EF82349088000F06AF85A
:100700002149098841EA00201F490880002408E0A7
:100710002146641C1C4A128811441C4A505C00F09B
:10072000E7F8104800780028F2D000BF0021104AF6
:10073000116051600948806840F440600749886052
:100740000020054948650F2001218140104A4309D6
:1007500042F8231000BF70BD0080074000000C402D
:100760002000002030200020080000201800002079
:1007700010000020006078400040804034200020BD
:1007800024000020260000202E2000202E00002023
:1007900080E200E000EB400399000A4600BF1346E8
:1007A000013B1A4600D0FAE77047000000F07EF8DF
:1007B0000020064900F012F90548006840F00300E7
:1007C0000349086000F058F900BFFEE700003E4012
:1007D00000800A402DE9F041002700240025002672
:1007E0003EE000BF2148006800F0200050B100BF8B
:1007F0001E48006800F020000028F9D10E2000F00B
:1008000037F802E01C2000F033F800BF17480068FA
:10081000C0F340143846791CCFB204FA00F03043DC
:10082000C6B21248006800F0200060B109E0012063
:1008300000F01EF805460D480068C0F3401000EABD
:1008400005046CB1F3E709E0012000F011F805465A
:1008500006480068C0F3401000EA0504002CF3D0FD
:10086000082FBEDB3046BDE8F081000000000C40E0
:1008700010B504462046FFF78DFF012010BD000093
:1008800010B5012006490870022006490860064894
:100890000068FFF75DFE00204FF0E021886110BD89
:1008A0003020002008000020200000200EB50E4857
:1008B000C06940F400100C49C8610320ADF8000085
:1008C00001208DF8020000208DF8080001208DF82D
:1008D0000A0002208DF8090001208DF80700694602
:1008E0000248FFF7C7FC0EBD0000024000800A402E
:1008F00070B5044600254FE02948006820F001004B
:100900002749086000BF2748006800F02000002841
:10091000F9D12448406840F0200022494860084648
:10092000406940F0200048611D48006840F0010027
:100930001B490860E007800E1A4908602320FFF772
:1009400097FF1848006800F0200004F00101B0EBA8
:10095000411F02D0FFF794FF70BD0620FFF788FF0C
:100960001048406820F020000E4948600846406961
:1009700020F0200048610820FFF77AFF094800684E
:1009800000F0200010B9FFF77BFFE5E71E20FFF71E
:100990006FFF6410681CC5B2082DADDB00BFDBE73C
:1009A00000800A4000000C4010B50120FFF760FFF6
:1009B00000F042F80848006820F02000064908606E
:1009C000C820FFF755FF0448006840F020000249A6
:1009D000086000F023F810BD00000C402DE9F0473E
:1009E00004460D46094830C00022094B074903C997
:1009F00000F05EFA06460022064B00F085F88046BD
:100A000000F0DAF904490860BDE8F087180000201A
:100A100000408F4000002940200000200548406829
:100A200020F02000034948600846806820F44060B8
:100A30008860704700000C400E48406840F020007D
:100A40000C4948600846806820F440608860084689
:100A5000C06840F02000C8600846806940F400602B
:100A600088610846406940F0200048610020086124
:100A7000C861704700000C400EB51A48C06940F0CC
:100A800080701849C8612020ADF8000000208DF862
:100A9000020003208DF8080001208DF804008DF875
:100AA0000A0002208DF8090069460F48FFF7E2FBB3
:100AB0000121C803FFF7C2FC00200C49C8600948A7
:100AC000406A40F00070074948620848006D0749D5
:100AD00008650C20886540F60100C8600F20FFF70C
:100AE000BEFB0EBD0000024000000C40008007402D
:100AF000491058BFC1F140415B1058BFC3F140439A
:100B00008B42EFF3008070472DE9C04130B4DFF82D
:100B1000A0C23CEA111418BF3CEA131400F0EC80A8
:100B200081EA03051CEA111444EAD57418BF1CEAD3
:100B3000131500F0C780A4EB05044FF0004545EA0B
:100B4000C12145EAC32341EA505143EA525304F11B
:100B50007F74994204F500344FEAC0204FEAC22264
:100B600008BF904200F09C804FEA13650FF24016D8
:100B7000765D4FEA134506FB05F7C7F1807706FB64
:100B800007F74FEAD737A7FB03687642C8F58038E6
:100B9000A7FB06CE38BFA8F1010807FB08E64FF017
:100BA000000EA6FB028CE6FB03CEDCF1000CCEF1BE
:100BB000004E38BFAEF1010EA6FB0C584FF00007F7
:100BC0004FF00005E6FB0E87A1FB08C6A0FB07CE91
:100BD00016EB0E0645F10005E1FB076515F1E04E49
:100BE0007EBFA4F580345FEA46066D4116F18007AA
:100BF00045F100054FEA17274FEA066647EA056701
:100C0000A6F1DE46B6F1805F4FEA15251FD93846BA
:100C100024F0010C05EBC471BCF1FE6F01EB0C116B
:100C200002D8F0BCBDE8008124425CBF01F5801E03
:100C30009EEAC47F02D4F0BCBDE80081244238D4CF
:100C4000F0BCA1F1C041BDE8004100F029BA4FEA73
:100C5000D22242EA43524FEAD323A7FB02864FEA4D
:100C6000D02040EA415007FB03661EEA0E0F4FEA10
:100C7000D12105FB026658BFA6EB0056B6EB005625
:100C80004FEA520E4EEAC37E18EB0E0E56EB530E91
:100C9000BDD518EB02085E417F1C55F10005B6E793
:100CA0004FF480154FF000074FF000064FF000089A
:100CB000ADE7F0BC4FF0000001F1C04101F0004190
:100CC000BDE8008111EA0C1F0CEA131500D00CE0FE
:100CD00013EA0C1F00F025804FF00000F0BC81EA01
:100CE000030101F00041BDE80081F0BCBDE8004116
:100CF00081EA030100F0D4B9F0BCBDE8004170B551
:100D000000F080F9097EFC3E00F007B881EA03019B
:100D10004FF0000001F00041704781EA030100F04C
:100D2000BFB9F0BCBDE800414FF000002149704759
:100D3000FFFDFBF9F7F5F4F2F0EEEDEBE9E8E6E4A0
:100D4000E3E1E0DEDDDBDAD8D7D5D4D3D1D0CFCD27
:100D5000CCCBCAC8C7C6C5C4C2C1C0BFBEBDBCBB60
:100D6000BAB9B8B7B6B5B4B3B2B1B0AFAEADACAB5B
:100D7000AAA9A8A8A7A6A5A4A3A3A2A1A09F9F9E35
:100D80009D9C9C9B9A9999989797969595949393E7
:100D9000929191908F8F8E8E8D8C8C8B8B8A89897E
:100DA0008888878786858584848383828281818001
:100DB0000000FF070000F87F4FEA1153A3F580639E
:100DC000D3F11E03A8BFD3F1200C08DB4FF0004283
:100DD00042EAC12252EA505232FA03F07047094205
:100DE0000BD4102BC4BF0020704703F5787CBCF1F6
:100DF000FF3F05D04FF0FF3070474FF000007047C5
:100E000070B500F0FFF800BF4992248000207047C1
:100E1000F0E7B0FA80F310FA03F10AD0C3F11D0332
:100E200003F580634FEA41504FEA035202EBD121B0
:100E300070474FF00000704751EA030C17D41CF5BF
:100E4000801F58BFBCF5801F00F10680994218BF73
:100E5000704708BF9042704707D711F5801F58BFF1
:100E600013F5801F19D499427047894270471CF5C9
:100E7000801F08D5BCF5801FF7D58B4218BF70477F
:100E800008BF824270474FF4001C1CEB410F38BF73
:100E90001CEB430F01D28B42704770B500F0B2F8E3
:100EA000922449004FF000514FF08053FFF720BECD
:100EB000DFF848C170B51CEA111E1EBF1CEA1315ED
:100EC0009EEA0C0F95EA0C0F00F06F8081EA030494
:100ED00023EA4C134EEAD47E21EA4C1141F48011EE
:100EE00043F48013AE44A1FB024CA0FB0365AEF1BA
:100EF0007F7E361955EB0C05A1FB034C4CF100032A
:100F0000A0FB021C16EB0C06654153F100030942DD
:100F100018BF46F0010613F4007F0BD14FEA0331EE
:100F20004FEA0530340341EA155140EA16506FF09C
:100F300003020AE04FEAC3214FEAC520F40241EA66
:100F4000555140EA56506FF0020202EB2E4201EB7F
:100F5000025585EACE710AD05FEA440C18BF24F02E
:100F6000004450F1000041F1000120EAD47040F249
:100F7000FE7C624500D270BDA84214BF4FF0804491
:100F80004FF04044002E08BF0024BEF1806FA8BF80
:100F9000A1F1C041BDE8704080F282804FF00000B6
:100FA00001F1C04101F0004170479EEA0C0F0CEACC
:100FB000131518BF95EA0C0F06D04FF0000081EA18
:100FC000030E0EF0004170BD00F01CF88900013ED8
:100FD00000F007B800F009B84FEA430C5FEA5C5C28
:100FE00008D081EA030100F05BB84FEA410C5FEAE8
:100FF0005C5CF6D14FF00000014970470000FF072C
:101000000000F87F0EF1020E2EF0030E5EF8046B66
:10101000364205D4012A43EB030515F5001F12D80B
:10102000012841EB010C1CF5001F0CD80ED14FEA32
:10103000D17C15F5001F0CEB4C0C0CF1020C08BF19
:101040004CEBD37C04E04FF0080C01E04FEAD37C7A
:101050000CEB4C0526FA05F606F00706B6F1040C73
:1010600006D20EEB860CBDE870404CF0010C6047D8
:10107000DFE80CF0090B02024FF000414FF00000D6
:10108000A1F5002170BD19461046012851EB01045D
:1010900018BFD4F5001484BF002001F0004170BDDA
:1010A0000808A0F500114FEA3101704753EA010C1E
:1010B00017D41CF5801F58BFBCF5801F00F10680B7
:1010C0008B4218BF704708BF8242704707D713F59D
:1010D000801F58BF11F5801F19D48B4270479B4267
:1010E00070471CF5801F08D5BCF5801FF7D59942C5
:1010F00018BF704708BF904270474FF4001C1CEBAC
:10110000430F38BF1CEB410F01D2994270470FB417
:101110000CBC03BCFFF7C1BE381100080000002062
:1011200038200000FC0000080412000838200020CD
:1011300060060000600100080223000110050CB3E6
:101140004D4C074010AC3F7C140045534A00B61F7D
:10115000DE554D451C018E0802FF550101FF0101BE
:10116000FF0101FF0101FF0101FF0101FF0101FF7B
:101170000101FF0101FF0101FF0101FF0101FF0169
:1011800001FF0101FF0101FF0101FF0101FF010159
:10119000FF0101FF0101FF0101FF0101FF0101FF4B
:1011A0000101FF0101FF0101FF0101FF0101FF0139
:1011B00001FF0101F1015D181F8C44538D1E05D9FB
:1011C000EDCEC3BE084227E4327FD2AADDBB52C6B1
:1011D00011AC55ED6CC89638725D85BEFE57D8A629
:1011E000436EAE597D542558B564BD08042644E3CA
:1011F000A0AADF9475A87DA9DC9CD05E37532E2071
:0412000000000000EA
:04000005080000C12E
:00000001FF
